{
	"Lottery.sol": {
		"Lottery": {
			"abi": [
				{
					"inputs": [],
					"stateMutability": "nonpayable",
					"type": "constructor"
				},
				{
					"inputs": [],
					"name": "getBalance",
					"outputs": [
						{
							"internalType": "uint256",
							"name": "",
							"type": "uint256"
						}
					],
					"stateMutability": "view",
					"type": "function"
				},
				{
					"inputs": [],
					"name": "manager",
					"outputs": [
						{
							"internalType": "address",
							"name": "",
							"type": "address"
						}
					],
					"stateMutability": "view",
					"type": "function"
				},
				{
					"inputs": [
						{
							"internalType": "uint256",
							"name": "",
							"type": "uint256"
						}
					],
					"name": "participants",
					"outputs": [
						{
							"internalType": "address payable",
							"name": "",
							"type": "address"
						}
					],
					"stateMutability": "view",
					"type": "function"
				},
				{
					"inputs": [],
					"name": "random",
					"outputs": [
						{
							"internalType": "uint256",
							"name": "",
							"type": "uint256"
						}
					],
					"stateMutability": "view",
					"type": "function"
				},
				{
					"inputs": [],
					"name": "selectWinner",
					"outputs": [],
					"stateMutability": "nonpayable",
					"type": "function"
				},
				{
					"stateMutability": "payable",
					"type": "receive"
				}
			],
			"devdoc": {
				"kind": "dev",
				"methods": {},
				"title": "A Lottery Game!",
				"version": 1
			},
			"evm": {
				"assembly": "    /* \"Lottery.sol\":97:1620  contract Lottery{\r... */\n  mstore(0x40, 0x80)\n    /* \"Lottery.sol\":264:316  constructor(){\r... */\n  callvalue\n  dup1\n  iszero\n  tag_1\n  jumpi\n  0x00\n  dup1\n  revert\ntag_1:\n  pop\n    /* \"Lottery.sol\":298:308  msg.sender */\n  caller\n    /* \"Lottery.sol\":288:295  manager */\n  0x00\n  dup1\n    /* \"Lottery.sol\":288:308  manager = msg.sender */\n  0x0100\n  exp\n  dup2\n  sload\n  dup2\n  0xffffffffffffffffffffffffffffffffffffffff\n  mul\n  not\n  and\n  swap1\n  dup4\n  0xffffffffffffffffffffffffffffffffffffffff\n  and\n  mul\n  or\n  swap1\n  sstore\n  pop\n    /* \"Lottery.sol\":97:1620  contract Lottery{\r... */\n  dataSize(sub_0)\n  dup1\n  dataOffset(sub_0)\n  0x00\n  codecopy\n  0x00\n  return\nstop\n\nsub_0: assembly {\n        /* \"Lottery.sol\":97:1620  contract Lottery{\r... */\n      mstore(0x40, 0x80)\n      jumpi(tag_1, lt(calldatasize, 0x04))\n      shr(0xe0, calldataload(0x00))\n      dup1\n      0x12065fe0\n      eq\n      tag_3\n      jumpi\n      dup1\n      0x33a99e04\n      eq\n      tag_4\n      jumpi\n      dup1\n      0x35c1d349\n      eq\n      tag_5\n      jumpi\n      dup1\n      0x481c6a75\n      eq\n      tag_6\n      jumpi\n      dup1\n      0x5ec01e4d\n      eq\n      tag_7\n      jumpi\n      jump(tag_2)\n    tag_1:\n      jumpi(tag_2, calldatasize)\n        /* \"Lottery.sol\":464:471  1 ether */\n      0x0de0b6b3a7640000\n        /* \"Lottery.sol\":451:460  msg.value */\n      callvalue\n        /* \"Lottery.sol\":451:471  msg.value == 1 ether */\n      eq\n        /* \"Lottery.sol\":443:472  require(msg.value == 1 ether) */\n      tag_10\n      jumpi\n      0x00\n      dup1\n      revert\n    tag_10:\n        /* \"Lottery.sol\":483:495  participants */\n      0x01\n        /* \"Lottery.sol\":509:519  msg.sender */\n      caller\n        /* \"Lottery.sol\":483:521  participants.push(payable(msg.sender)) */\n      swap1\n      dup1\n      0x01\n      dup2\n      sload\n      add\n      dup1\n      dup3\n      sstore\n      dup1\n      swap2\n      pop\n      pop\n      0x01\n      swap1\n      sub\n      swap1\n      0x00\n      mstore\n      keccak256(0x00, 0x20)\n      add\n      0x00\n      swap1\n      swap2\n      swap1\n      swap2\n      swap1\n      swap2\n      0x0100\n      exp\n      dup2\n      sload\n      dup2\n      0xffffffffffffffffffffffffffffffffffffffff\n      mul\n      not\n      and\n      swap1\n      dup4\n      0xffffffffffffffffffffffffffffffffffffffff\n      and\n      mul\n      or\n      swap1\n      sstore\n      pop\n        /* \"Lottery.sol\":97:1620  contract Lottery{\r... */\n      stop\n    tag_2:\n      0x00\n      dup1\n      revert\n        /* \"Lottery.sol\":616:787  function getBalance() public view returns(uint){\r... */\n    tag_3:\n      callvalue\n      dup1\n      iszero\n      tag_12\n      jumpi\n      0x00\n      dup1\n      revert\n    tag_12:\n      pop\n      tag_13\n      tag_14\n      jump\t// in\n    tag_13:\n      mload(0x40)\n      tag_15\n      swap2\n      swap1\n      tag_16\n      jump\t// in\n    tag_15:\n      mload(0x40)\n      dup1\n      swap2\n      sub\n      swap1\n      return\n        /* \"Lottery.sol\":1178:1617  function selectWinner() public {\r... */\n    tag_4:\n      callvalue\n      dup1\n      iszero\n      tag_17\n      jumpi\n      0x00\n      dup1\n      revert\n    tag_17:\n      pop\n      tag_18\n      tag_19\n      jump\t// in\n    tag_18:\n      stop\n        /* \"Lottery.sol\":218:255  address payable[] public participants */\n    tag_5:\n      callvalue\n      dup1\n      iszero\n      tag_20\n      jumpi\n      0x00\n      dup1\n      revert\n    tag_20:\n      pop\n      tag_21\n      0x04\n      dup1\n      calldatasize\n      sub\n      dup2\n      add\n      swap1\n      tag_22\n      swap2\n      swap1\n      tag_23\n      jump\t// in\n    tag_22:\n      tag_24\n      jump\t// in\n    tag_21:\n      mload(0x40)\n      tag_25\n      swap2\n      swap1\n      tag_26\n      jump\t// in\n    tag_25:\n      mload(0x40)\n      dup1\n      swap2\n      sub\n      swap1\n      return\n        /* \"Lottery.sol\":189:211  address public manager */\n    tag_6:\n      callvalue\n      dup1\n      iszero\n      tag_27\n      jumpi\n      0x00\n      dup1\n      revert\n    tag_27:\n      pop\n      tag_28\n      tag_29\n      jump\t// in\n    tag_28:\n      mload(0x40)\n      tag_30\n      swap2\n      swap1\n      tag_31\n      jump\t// in\n    tag_30:\n      mload(0x40)\n      dup1\n      swap2\n      sub\n      swap1\n      return\n        /* \"Lottery.sol\":859:1015  function random() public view returns(uint){\r... */\n    tag_7:\n      callvalue\n      dup1\n      iszero\n      tag_32\n      jumpi\n      0x00\n      dup1\n      revert\n    tag_32:\n      pop\n      tag_33\n      tag_34\n      jump\t// in\n    tag_33:\n      mload(0x40)\n      tag_35\n      swap2\n      swap1\n      tag_16\n      jump\t// in\n    tag_35:\n      mload(0x40)\n      dup1\n      swap2\n      sub\n      swap1\n      return\n        /* \"Lottery.sol\":616:787  function getBalance() public view returns(uint){\r... */\n    tag_14:\n        /* \"Lottery.sol\":658:662  uint */\n      0x00\n        /* \"Lottery.sol\":696:703  manager */\n      dup1\n      0x00\n      swap1\n      sload\n      swap1\n      0x0100\n      exp\n      swap1\n      div\n      0xffffffffffffffffffffffffffffffffffffffff\n      and\n        /* \"Lottery.sol\":682:703  msg.sender == manager */\n      0xffffffffffffffffffffffffffffffffffffffff\n      and\n        /* \"Lottery.sol\":682:692  msg.sender */\n      caller\n        /* \"Lottery.sol\":682:703  msg.sender == manager */\n      0xffffffffffffffffffffffffffffffffffffffff\n      and\n      eq\n        /* \"Lottery.sol\":674:740  require(msg.sender == manager, \"Only Manager can see the balance\") */\n      tag_37\n      jumpi\n      mload(0x40)\n      0x08c379a000000000000000000000000000000000000000000000000000000000\n      dup2\n      mstore\n      0x04\n      add\n      tag_38\n      swap1\n      tag_39\n      jump\t// in\n    tag_38:\n      mload(0x40)\n      dup1\n      swap2\n      sub\n      swap1\n      revert\n    tag_37:\n        /* \"Lottery.sol\":758:779  address(this).balance */\n      selfbalance\n        /* \"Lottery.sol\":751:779  return address(this).balance */\n      swap1\n      pop\n        /* \"Lottery.sol\":616:787  function getBalance() public view returns(uint){\r... */\n      swap1\n      jump\t// out\n        /* \"Lottery.sol\":1178:1617  function selectWinner() public {\r... */\n    tag_19:\n        /* \"Lottery.sol\":1242:1249  manager */\n      0x00\n      dup1\n      sload\n      swap1\n      0x0100\n      exp\n      swap1\n      div\n      0xffffffffffffffffffffffffffffffffffffffff\n      and\n        /* \"Lottery.sol\":1228:1249  msg.sender == manager */\n      0xffffffffffffffffffffffffffffffffffffffff\n      and\n        /* \"Lottery.sol\":1228:1238  msg.sender */\n      caller\n        /* \"Lottery.sol\":1228:1249  msg.sender == manager */\n      0xffffffffffffffffffffffffffffffffffffffff\n      and\n      eq\n        /* \"Lottery.sol\":1220:1286  require(msg.sender == manager, \"Only Manager can start  the game\") */\n      tag_41\n      jumpi\n      mload(0x40)\n      0x08c379a000000000000000000000000000000000000000000000000000000000\n      dup2\n      mstore\n      0x04\n      add\n      tag_42\n      swap1\n      tag_43\n      jump\t// in\n    tag_42:\n      mload(0x40)\n      dup1\n      swap2\n      sub\n      swap1\n      revert\n    tag_41:\n        /* \"Lottery.sol\":1327:1328  3 */\n      0x03\n        /* \"Lottery.sol\":1305:1317  participants */\n      0x01\n        /* \"Lottery.sol\":1305:1324  participants.length */\n      dup1\n      sload\n      swap1\n      pop\n        /* \"Lottery.sol\":1305:1328  participants.length >=3 */\n      lt\n      iszero\n        /* \"Lottery.sol\":1297:1365  require(participants.length >=3, \"Participants are less than three\") */\n      tag_44\n      jumpi\n      mload(0x40)\n      0x08c379a000000000000000000000000000000000000000000000000000000000\n      dup2\n      mstore\n      0x04\n      add\n      tag_45\n      swap1\n      tag_46\n      jump\t// in\n    tag_45:\n      mload(0x40)\n      dup1\n      swap2\n      sub\n      swap1\n      revert\n    tag_44:\n        /* \"Lottery.sol\":1377:1383  uint r */\n      0x00\n        /* \"Lottery.sol\":1391:1399  random() */\n      tag_47\n        /* \"Lottery.sol\":1391:1397  random */\n      tag_34\n        /* \"Lottery.sol\":1391:1399  random() */\n      jump\t// in\n    tag_47:\n        /* \"Lottery.sol\":1377:1400  uint r = uint(random()) */\n      swap1\n      pop\n        /* \"Lottery.sol\":1411:1421  uint index */\n      0x00\n        /* \"Lottery.sol\":1428:1440  participants */\n      0x01\n        /* \"Lottery.sol\":1428:1447  participants.length */\n      dup1\n      sload\n      swap1\n      pop\n        /* \"Lottery.sol\":1424:1425  r */\n      dup3\n        /* \"Lottery.sol\":1424:1447  r % participants.length */\n      tag_48\n      swap2\n      swap1\n      tag_49\n      jump\t// in\n    tag_48:\n        /* \"Lottery.sol\":1411:1447  uint index = r % participants.length */\n      swap1\n      pop\n        /* \"Lottery.sol\":1458:1480  address payable winner */\n      0x00\n        /* \"Lottery.sol\":1500:1512  participants */\n      0x01\n        /* \"Lottery.sol\":1513:1518  index */\n      dup3\n        /* \"Lottery.sol\":1500:1519  participants[index] */\n      dup2\n      sload\n      dup2\n      lt\n      tag_50\n      jumpi\n      tag_51\n      tag_52\n      jump\t// in\n    tag_51:\n    tag_50:\n      swap1\n      0x00\n      mstore\n      keccak256(0x00, 0x20)\n      add\n      0x00\n      swap1\n      sload\n      swap1\n      0x0100\n      exp\n      swap1\n      div\n      0xffffffffffffffffffffffffffffffffffffffff\n      and\n        /* \"Lottery.sol\":1491:1519  winner = participants[index] */\n      swap1\n      pop\n        /* \"Lottery.sol\":1530:1536  winner */\n      dup1\n        /* \"Lottery.sol\":1530:1545  winner.transfer */\n      0xffffffffffffffffffffffffffffffffffffffff\n      and\n        /* \"Lottery.sol\":1530:1559  winner.transfer(getBalance()) */\n      0x08fc\n        /* \"Lottery.sol\":1546:1558  getBalance() */\n      tag_54\n        /* \"Lottery.sol\":1546:1556  getBalance */\n      tag_14\n        /* \"Lottery.sol\":1546:1558  getBalance() */\n      jump\t// in\n    tag_54:\n        /* \"Lottery.sol\":1530:1559  winner.transfer(getBalance()) */\n      swap1\n      dup2\n      iszero\n      mul\n      swap1\n      mload(0x40)\n      0x00\n      mload(0x40)\n      dup1\n      dup4\n      sub\n      dup2\n      dup6\n      dup9\n      dup9\n      call\n      swap4\n      pop\n      pop\n      pop\n      pop\n      iszero\n      dup1\n      iszero\n      tag_56\n      jumpi\n      returndatasize\n      0x00\n      dup1\n      returndatacopy\n      revert(0x00, returndatasize)\n    tag_56:\n      pop\n        /* \"Lottery.sol\":1607:1608  0 */\n      0x00\n        /* \"Lottery.sol\":1585:1609  new address payable[](0) */\n      0xffffffffffffffff\n      dup2\n      gt\n      iszero\n      tag_57\n      jumpi\n      tag_58\n      tag_59\n      jump\t// in\n    tag_58:\n    tag_57:\n      mload(0x40)\n      swap1\n      dup1\n      dup3\n      mstore\n      dup1\n      0x20\n      mul\n      0x20\n      add\n      dup3\n      add\n      0x40\n      mstore\n      dup1\n      iszero\n      tag_60\n      jumpi\n      dup2\n      0x20\n      add\n      0x20\n      dup3\n      mul\n      dup1\n      calldatasize\n      dup4\n      calldatacopy\n      dup1\n      dup3\n      add\n      swap2\n      pop\n      pop\n      swap1\n      pop\n    tag_60:\n      pop\n        /* \"Lottery.sol\":1570:1582  participants */\n      0x01\n        /* \"Lottery.sol\":1570:1609  participants = new address payable[](0) */\n      swap1\n      dup1\n      mload\n      swap1\n      0x20\n      add\n      swap1\n      tag_61\n      swap3\n      swap2\n      swap1\n      tag_62\n      jump\t// in\n    tag_61:\n      pop\n        /* \"Lottery.sol\":1209:1617  {\r... */\n      pop\n      pop\n      pop\n        /* \"Lottery.sol\":1178:1617  function selectWinner() public {\r... */\n      jump\t// out\n        /* \"Lottery.sol\":218:255  address payable[] public participants */\n    tag_24:\n      0x01\n      dup2\n      dup2\n      sload\n      dup2\n      lt\n      tag_63\n      jumpi\n      0x00\n      dup1\n      revert\n    tag_63:\n      swap1\n      0x00\n      mstore\n      keccak256(0x00, 0x20)\n      add\n      0x00\n      swap2\n      pop\n      sload\n      swap1\n      0x0100\n      exp\n      swap1\n      div\n      0xffffffffffffffffffffffffffffffffffffffff\n      and\n      dup2\n      jump\t// out\n        /* \"Lottery.sol\":189:211  address public manager */\n    tag_29:\n      0x00\n      dup1\n      sload\n      swap1\n      0x0100\n      exp\n      swap1\n      div\n      0xffffffffffffffffffffffffffffffffffffffff\n      and\n      dup2\n      jump\t// out\n        /* \"Lottery.sol\":859:1015  function random() public view returns(uint){\r... */\n    tag_34:\n        /* \"Lottery.sol\":897:901  uint */\n      0x00\n        /* \"Lottery.sol\":952:968  block.difficulty */\n      difficulty\n        /* \"Lottery.sol\":969:984  block.timestamp */\n      timestamp\n        /* \"Lottery.sol\":985:997  participants */\n      0x01\n        /* \"Lottery.sol\":985:1004  participants.length */\n      dup1\n      sload\n      swap1\n      pop\n        /* \"Lottery.sol\":935:1005  abi.encodePacked(block.difficulty,block.timestamp,participants.length) */\n      add(0x20, mload(0x40))\n      tag_66\n      swap4\n      swap3\n      swap2\n      swap1\n      tag_67\n      jump\t// in\n    tag_66:\n      mload(0x40)\n      0x20\n      dup2\n      dup4\n      sub\n      sub\n      dup2\n      mstore\n      swap1\n      0x40\n      mstore\n        /* \"Lottery.sol\":925:1006  keccak256(abi.encodePacked(block.difficulty,block.timestamp,participants.length)) */\n      dup1\n      mload\n      swap1\n      0x20\n      add\n      keccak256\n        /* \"Lottery.sol\":920:1007  uint(keccak256(abi.encodePacked(block.difficulty,block.timestamp,participants.length))) */\n      0x00\n      shr\n        /* \"Lottery.sol\":913:1007  return uint(keccak256(abi.encodePacked(block.difficulty,block.timestamp,participants.length))) */\n      swap1\n      pop\n        /* \"Lottery.sol\":859:1015  function random() public view returns(uint){\r... */\n      swap1\n      jump\t// out\n    tag_62:\n      dup3\n      dup1\n      sload\n      dup3\n      dup3\n      sstore\n      swap1\n      0x00\n      mstore\n      keccak256(0x00, 0x20)\n      swap1\n      dup2\n      add\n      swap3\n      dup3\n      iszero\n      tag_68\n      jumpi\n      swap2\n      0x20\n      mul\n      dup3\n      add\n    tag_69:\n      dup3\n      dup2\n      gt\n      iszero\n      tag_70\n      jumpi\n      dup3\n      mload\n      dup3\n      exp(0x0100, 0x00)\n      dup2\n      sload\n      dup2\n      0xffffffffffffffffffffffffffffffffffffffff\n      mul\n      not\n      and\n      swap1\n      dup4\n      0xffffffffffffffffffffffffffffffffffffffff\n      and\n      mul\n      or\n      swap1\n      sstore\n      pop\n      swap2\n      0x20\n      add\n      swap2\n      swap1\n      0x01\n      add\n      swap1\n      jump(tag_69)\n    tag_70:\n    tag_68:\n      pop\n      swap1\n      pop\n      tag_71\n      swap2\n      swap1\n      tag_72\n      jump\t// in\n    tag_71:\n      pop\n      swap1\n      jump\t// out\n    tag_72:\n    tag_73:\n      dup1\n      dup3\n      gt\n      iszero\n      tag_74\n      jumpi\n      0x00\n      dup2\n      0x00\n      swap1\n      sstore\n      pop\n      0x01\n      add\n      jump(tag_73)\n    tag_74:\n      pop\n      swap1\n      jump\t// out\n        /* \"#utility.yul\":7:146   */\n    tag_76:\n        /* \"#utility.yul\":53:58   */\n      0x00\n        /* \"#utility.yul\":91:97   */\n      dup2\n        /* \"#utility.yul\":78:98   */\n      calldataload\n        /* \"#utility.yul\":69:98   */\n      swap1\n      pop\n        /* \"#utility.yul\":107:140   */\n      tag_78\n        /* \"#utility.yul\":134:139   */\n      dup2\n        /* \"#utility.yul\":107:140   */\n      tag_79\n      jump\t// in\n    tag_78:\n        /* \"#utility.yul\":7:146   */\n      swap3\n      swap2\n      pop\n      pop\n      jump\t// out\n        /* \"#utility.yul\":152:481   */\n    tag_23:\n        /* \"#utility.yul\":211:217   */\n      0x00\n        /* \"#utility.yul\":260:262   */\n      0x20\n        /* \"#utility.yul\":248:257   */\n      dup3\n        /* \"#utility.yul\":239:246   */\n      dup5\n        /* \"#utility.yul\":235:258   */\n      sub\n        /* \"#utility.yul\":231:263   */\n      slt\n        /* \"#utility.yul\":228:347   */\n      iszero\n      tag_81\n      jumpi\n        /* \"#utility.yul\":266:345   */\n      tag_82\n      tag_83\n      jump\t// in\n    tag_82:\n        /* \"#utility.yul\":228:347   */\n    tag_81:\n        /* \"#utility.yul\":386:387   */\n      0x00\n        /* \"#utility.yul\":411:464   */\n      tag_84\n        /* \"#utility.yul\":456:463   */\n      dup5\n        /* \"#utility.yul\":447:453   */\n      dup3\n        /* \"#utility.yul\":436:445   */\n      dup6\n        /* \"#utility.yul\":432:454   */\n      add\n        /* \"#utility.yul\":411:464   */\n      tag_76\n      jump\t// in\n    tag_84:\n        /* \"#utility.yul\":401:464   */\n      swap2\n      pop\n        /* \"#utility.yul\":357:474   */\n      pop\n        /* \"#utility.yul\":152:481   */\n      swap3\n      swap2\n      pop\n      pop\n      jump\t// out\n        /* \"#utility.yul\":487:629   */\n    tag_85:\n        /* \"#utility.yul\":590:622   */\n      tag_87\n        /* \"#utility.yul\":616:621   */\n      dup2\n        /* \"#utility.yul\":590:622   */\n      tag_88\n      jump\t// in\n    tag_87:\n        /* \"#utility.yul\":585:588   */\n      dup3\n        /* \"#utility.yul\":578:623   */\n      mstore\n        /* \"#utility.yul\":487:629   */\n      pop\n      pop\n      jump\t// out\n        /* \"#utility.yul\":635:753   */\n    tag_89:\n        /* \"#utility.yul\":722:746   */\n      tag_91\n        /* \"#utility.yul\":740:745   */\n      dup2\n        /* \"#utility.yul\":722:746   */\n      tag_92\n      jump\t// in\n    tag_91:\n        /* \"#utility.yul\":717:720   */\n      dup3\n        /* \"#utility.yul\":710:747   */\n      mstore\n        /* \"#utility.yul\":635:753   */\n      pop\n      pop\n      jump\t// out\n        /* \"#utility.yul\":759:1125   */\n    tag_93:\n        /* \"#utility.yul\":901:904   */\n      0x00\n        /* \"#utility.yul\":922:989   */\n      tag_95\n        /* \"#utility.yul\":986:988   */\n      0x20\n        /* \"#utility.yul\":981:984   */\n      dup4\n        /* \"#utility.yul\":922:989   */\n      tag_96\n      jump\t// in\n    tag_95:\n        /* \"#utility.yul\":915:989   */\n      swap2\n      pop\n        /* \"#utility.yul\":998:1091   */\n      tag_97\n        /* \"#utility.yul\":1087:1090   */\n      dup3\n        /* \"#utility.yul\":998:1091   */\n      tag_98\n      jump\t// in\n    tag_97:\n        /* \"#utility.yul\":1116:1118   */\n      0x20\n        /* \"#utility.yul\":1111:1114   */\n      dup3\n        /* \"#utility.yul\":1107:1119   */\n      add\n        /* \"#utility.yul\":1100:1119   */\n      swap1\n      pop\n        /* \"#utility.yul\":759:1125   */\n      swap2\n      swap1\n      pop\n      jump\t// out\n        /* \"#utility.yul\":1131:1497   */\n    tag_99:\n        /* \"#utility.yul\":1273:1276   */\n      0x00\n        /* \"#utility.yul\":1294:1361   */\n      tag_101\n        /* \"#utility.yul\":1358:1360   */\n      0x20\n        /* \"#utility.yul\":1353:1356   */\n      dup4\n        /* \"#utility.yul\":1294:1361   */\n      tag_96\n      jump\t// in\n    tag_101:\n        /* \"#utility.yul\":1287:1361   */\n      swap2\n      pop\n        /* \"#utility.yul\":1370:1463   */\n      tag_102\n        /* \"#utility.yul\":1459:1462   */\n      dup3\n        /* \"#utility.yul\":1370:1463   */\n      tag_103\n      jump\t// in\n    tag_102:\n        /* \"#utility.yul\":1488:1490   */\n      0x20\n        /* \"#utility.yul\":1483:1486   */\n      dup3\n        /* \"#utility.yul\":1479:1491   */\n      add\n        /* \"#utility.yul\":1472:1491   */\n      swap1\n      pop\n        /* \"#utility.yul\":1131:1497   */\n      swap2\n      swap1\n      pop\n      jump\t// out\n        /* \"#utility.yul\":1503:1869   */\n    tag_104:\n        /* \"#utility.yul\":1645:1648   */\n      0x00\n        /* \"#utility.yul\":1666:1733   */\n      tag_106\n        /* \"#utility.yul\":1730:1732   */\n      0x20\n        /* \"#utility.yul\":1725:1728   */\n      dup4\n        /* \"#utility.yul\":1666:1733   */\n      tag_96\n      jump\t// in\n    tag_106:\n        /* \"#utility.yul\":1659:1733   */\n      swap2\n      pop\n        /* \"#utility.yul\":1742:1835   */\n      tag_107\n        /* \"#utility.yul\":1831:1834   */\n      dup3\n        /* \"#utility.yul\":1742:1835   */\n      tag_108\n      jump\t// in\n    tag_107:\n        /* \"#utility.yul\":1860:1862   */\n      0x20\n        /* \"#utility.yul\":1855:1858   */\n      dup3\n        /* \"#utility.yul\":1851:1863   */\n      add\n        /* \"#utility.yul\":1844:1863   */\n      swap1\n      pop\n        /* \"#utility.yul\":1503:1869   */\n      swap2\n      swap1\n      pop\n      jump\t// out\n        /* \"#utility.yul\":1875:1993   */\n    tag_109:\n        /* \"#utility.yul\":1962:1986   */\n      tag_111\n        /* \"#utility.yul\":1980:1985   */\n      dup2\n        /* \"#utility.yul\":1962:1986   */\n      tag_112\n      jump\t// in\n    tag_111:\n        /* \"#utility.yul\":1957:1960   */\n      dup3\n        /* \"#utility.yul\":1950:1987   */\n      mstore\n        /* \"#utility.yul\":1875:1993   */\n      pop\n      pop\n      jump\t// out\n        /* \"#utility.yul\":1999:2156   */\n    tag_113:\n        /* \"#utility.yul\":2104:2149   */\n      tag_115\n        /* \"#utility.yul\":2124:2148   */\n      tag_116\n        /* \"#utility.yul\":2142:2147   */\n      dup3\n        /* \"#utility.yul\":2124:2148   */\n      tag_112\n      jump\t// in\n    tag_116:\n        /* \"#utility.yul\":2104:2149   */\n      tag_117\n      jump\t// in\n    tag_115:\n        /* \"#utility.yul\":2099:2102   */\n      dup3\n        /* \"#utility.yul\":2092:2150   */\n      mstore\n        /* \"#utility.yul\":1999:2156   */\n      pop\n      pop\n      jump\t// out\n        /* \"#utility.yul\":2162:2700   */\n    tag_67:\n        /* \"#utility.yul\":2330:2333   */\n      0x00\n        /* \"#utility.yul\":2345:2420   */\n      tag_119\n        /* \"#utility.yul\":2416:2419   */\n      dup3\n        /* \"#utility.yul\":2407:2413   */\n      dup7\n        /* \"#utility.yul\":2345:2420   */\n      tag_113\n      jump\t// in\n    tag_119:\n        /* \"#utility.yul\":2445:2447   */\n      0x20\n        /* \"#utility.yul\":2440:2443   */\n      dup3\n        /* \"#utility.yul\":2436:2448   */\n      add\n        /* \"#utility.yul\":2429:2448   */\n      swap2\n      pop\n        /* \"#utility.yul\":2458:2533   */\n      tag_120\n        /* \"#utility.yul\":2529:2532   */\n      dup3\n        /* \"#utility.yul\":2520:2526   */\n      dup6\n        /* \"#utility.yul\":2458:2533   */\n      tag_113\n      jump\t// in\n    tag_120:\n        /* \"#utility.yul\":2558:2560   */\n      0x20\n        /* \"#utility.yul\":2553:2556   */\n      dup3\n        /* \"#utility.yul\":2549:2561   */\n      add\n        /* \"#utility.yul\":2542:2561   */\n      swap2\n      pop\n        /* \"#utility.yul\":2571:2646   */\n      tag_121\n        /* \"#utility.yul\":2642:2645   */\n      dup3\n        /* \"#utility.yul\":2633:2639   */\n      dup5\n        /* \"#utility.yul\":2571:2646   */\n      tag_113\n      jump\t// in\n    tag_121:\n        /* \"#utility.yul\":2671:2673   */\n      0x20\n        /* \"#utility.yul\":2666:2669   */\n      dup3\n        /* \"#utility.yul\":2662:2674   */\n      add\n        /* \"#utility.yul\":2655:2674   */\n      swap2\n      pop\n        /* \"#utility.yul\":2691:2694   */\n      dup2\n        /* \"#utility.yul\":2684:2694   */\n      swap1\n      pop\n        /* \"#utility.yul\":2162:2700   */\n      swap5\n      swap4\n      pop\n      pop\n      pop\n      pop\n      jump\t// out\n        /* \"#utility.yul\":2706:2928   */\n    tag_31:\n        /* \"#utility.yul\":2799:2803   */\n      0x00\n        /* \"#utility.yul\":2837:2839   */\n      0x20\n        /* \"#utility.yul\":2826:2835   */\n      dup3\n        /* \"#utility.yul\":2822:2840   */\n      add\n        /* \"#utility.yul\":2814:2840   */\n      swap1\n      pop\n        /* \"#utility.yul\":2850:2921   */\n      tag_123\n        /* \"#utility.yul\":2918:2919   */\n      0x00\n        /* \"#utility.yul\":2907:2916   */\n      dup4\n        /* \"#utility.yul\":2903:2920   */\n      add\n        /* \"#utility.yul\":2894:2900   */\n      dup5\n        /* \"#utility.yul\":2850:2921   */\n      tag_89\n      jump\t// in\n    tag_123:\n        /* \"#utility.yul\":2706:2928   */\n      swap3\n      swap2\n      pop\n      pop\n      jump\t// out\n        /* \"#utility.yul\":2934:3188   */\n    tag_26:\n        /* \"#utility.yul\":3043:3047   */\n      0x00\n        /* \"#utility.yul\":3081:3083   */\n      0x20\n        /* \"#utility.yul\":3070:3079   */\n      dup3\n        /* \"#utility.yul\":3066:3084   */\n      add\n        /* \"#utility.yul\":3058:3084   */\n      swap1\n      pop\n        /* \"#utility.yul\":3094:3181   */\n      tag_125\n        /* \"#utility.yul\":3178:3179   */\n      0x00\n        /* \"#utility.yul\":3167:3176   */\n      dup4\n        /* \"#utility.yul\":3163:3180   */\n      add\n        /* \"#utility.yul\":3154:3160   */\n      dup5\n        /* \"#utility.yul\":3094:3181   */\n      tag_85\n      jump\t// in\n    tag_125:\n        /* \"#utility.yul\":2934:3188   */\n      swap3\n      swap2\n      pop\n      pop\n      jump\t// out\n        /* \"#utility.yul\":3194:3613   */\n    tag_46:\n        /* \"#utility.yul\":3360:3364   */\n      0x00\n        /* \"#utility.yul\":3398:3400   */\n      0x20\n        /* \"#utility.yul\":3387:3396   */\n      dup3\n        /* \"#utility.yul\":3383:3401   */\n      add\n        /* \"#utility.yul\":3375:3401   */\n      swap1\n      pop\n        /* \"#utility.yul\":3447:3456   */\n      dup2\n        /* \"#utility.yul\":3441:3445   */\n      dup2\n        /* \"#utility.yul\":3437:3457   */\n      sub\n        /* \"#utility.yul\":3433:3434   */\n      0x00\n        /* \"#utility.yul\":3422:3431   */\n      dup4\n        /* \"#utility.yul\":3418:3435   */\n      add\n        /* \"#utility.yul\":3411:3458   */\n      mstore\n        /* \"#utility.yul\":3475:3606   */\n      tag_127\n        /* \"#utility.yul\":3601:3605   */\n      dup2\n        /* \"#utility.yul\":3475:3606   */\n      tag_93\n      jump\t// in\n    tag_127:\n        /* \"#utility.yul\":3467:3606   */\n      swap1\n      pop\n        /* \"#utility.yul\":3194:3613   */\n      swap2\n      swap1\n      pop\n      jump\t// out\n        /* \"#utility.yul\":3619:4038   */\n    tag_39:\n        /* \"#utility.yul\":3785:3789   */\n      0x00\n        /* \"#utility.yul\":3823:3825   */\n      0x20\n        /* \"#utility.yul\":3812:3821   */\n      dup3\n        /* \"#utility.yul\":3808:3826   */\n      add\n        /* \"#utility.yul\":3800:3826   */\n      swap1\n      pop\n        /* \"#utility.yul\":3872:3881   */\n      dup2\n        /* \"#utility.yul\":3866:3870   */\n      dup2\n        /* \"#utility.yul\":3862:3882   */\n      sub\n        /* \"#utility.yul\":3858:3859   */\n      0x00\n        /* \"#utility.yul\":3847:3856   */\n      dup4\n        /* \"#utility.yul\":3843:3860   */\n      add\n        /* \"#utility.yul\":3836:3883   */\n      mstore\n        /* \"#utility.yul\":3900:4031   */\n      tag_129\n        /* \"#utility.yul\":4026:4030   */\n      dup2\n        /* \"#utility.yul\":3900:4031   */\n      tag_99\n      jump\t// in\n    tag_129:\n        /* \"#utility.yul\":3892:4031   */\n      swap1\n      pop\n        /* \"#utility.yul\":3619:4038   */\n      swap2\n      swap1\n      pop\n      jump\t// out\n        /* \"#utility.yul\":4044:4463   */\n    tag_43:\n        /* \"#utility.yul\":4210:4214   */\n      0x00\n        /* \"#utility.yul\":4248:4250   */\n      0x20\n        /* \"#utility.yul\":4237:4246   */\n      dup3\n        /* \"#utility.yul\":4233:4251   */\n      add\n        /* \"#utility.yul\":4225:4251   */\n      swap1\n      pop\n        /* \"#utility.yul\":4297:4306   */\n      dup2\n        /* \"#utility.yul\":4291:4295   */\n      dup2\n        /* \"#utility.yul\":4287:4307   */\n      sub\n        /* \"#utility.yul\":4283:4284   */\n      0x00\n        /* \"#utility.yul\":4272:4281   */\n      dup4\n        /* \"#utility.yul\":4268:4285   */\n      add\n        /* \"#utility.yul\":4261:4308   */\n      mstore\n        /* \"#utility.yul\":4325:4456   */\n      tag_131\n        /* \"#utility.yul\":4451:4455   */\n      dup2\n        /* \"#utility.yul\":4325:4456   */\n      tag_104\n      jump\t// in\n    tag_131:\n        /* \"#utility.yul\":4317:4456   */\n      swap1\n      pop\n        /* \"#utility.yul\":4044:4463   */\n      swap2\n      swap1\n      pop\n      jump\t// out\n        /* \"#utility.yul\":4469:4691   */\n    tag_16:\n        /* \"#utility.yul\":4562:4566   */\n      0x00\n        /* \"#utility.yul\":4600:4602   */\n      0x20\n        /* \"#utility.yul\":4589:4598   */\n      dup3\n        /* \"#utility.yul\":4585:4603   */\n      add\n        /* \"#utility.yul\":4577:4603   */\n      swap1\n      pop\n        /* \"#utility.yul\":4613:4684   */\n      tag_133\n        /* \"#utility.yul\":4681:4682   */\n      0x00\n        /* \"#utility.yul\":4670:4679   */\n      dup4\n        /* \"#utility.yul\":4666:4683   */\n      add\n        /* \"#utility.yul\":4657:4663   */\n      dup5\n        /* \"#utility.yul\":4613:4684   */\n      tag_109\n      jump\t// in\n    tag_133:\n        /* \"#utility.yul\":4469:4691   */\n      swap3\n      swap2\n      pop\n      pop\n      jump\t// out\n        /* \"#utility.yul\":4778:4947   */\n    tag_96:\n        /* \"#utility.yul\":4862:4873   */\n      0x00\n        /* \"#utility.yul\":4896:4902   */\n      dup3\n        /* \"#utility.yul\":4891:4894   */\n      dup3\n        /* \"#utility.yul\":4884:4903   */\n      mstore\n        /* \"#utility.yul\":4936:4940   */\n      0x20\n        /* \"#utility.yul\":4931:4934   */\n      dup3\n        /* \"#utility.yul\":4927:4941   */\n      add\n        /* \"#utility.yul\":4912:4941   */\n      swap1\n      pop\n        /* \"#utility.yul\":4778:4947   */\n      swap3\n      swap2\n      pop\n      pop\n      jump\t// out\n        /* \"#utility.yul\":4953:5049   */\n    tag_92:\n        /* \"#utility.yul\":4990:4997   */\n      0x00\n        /* \"#utility.yul\":5019:5043   */\n      tag_138\n        /* \"#utility.yul\":5037:5042   */\n      dup3\n        /* \"#utility.yul\":5019:5043   */\n      tag_139\n      jump\t// in\n    tag_138:\n        /* \"#utility.yul\":5008:5043   */\n      swap1\n      pop\n        /* \"#utility.yul\":4953:5049   */\n      swap2\n      swap1\n      pop\n      jump\t// out\n        /* \"#utility.yul\":5055:5159   */\n    tag_88:\n        /* \"#utility.yul\":5100:5107   */\n      0x00\n        /* \"#utility.yul\":5129:5153   */\n      tag_141\n        /* \"#utility.yul\":5147:5152   */\n      dup3\n        /* \"#utility.yul\":5129:5153   */\n      tag_139\n      jump\t// in\n    tag_141:\n        /* \"#utility.yul\":5118:5153   */\n      swap1\n      pop\n        /* \"#utility.yul\":5055:5159   */\n      swap2\n      swap1\n      pop\n      jump\t// out\n        /* \"#utility.yul\":5165:5291   */\n    tag_139:\n        /* \"#utility.yul\":5202:5209   */\n      0x00\n        /* \"#utility.yul\":5242:5284   */\n      0xffffffffffffffffffffffffffffffffffffffff\n        /* \"#utility.yul\":5235:5240   */\n      dup3\n        /* \"#utility.yul\":5231:5285   */\n      and\n        /* \"#utility.yul\":5220:5285   */\n      swap1\n      pop\n        /* \"#utility.yul\":5165:5291   */\n      swap2\n      swap1\n      pop\n      jump\t// out\n        /* \"#utility.yul\":5297:5374   */\n    tag_112:\n        /* \"#utility.yul\":5334:5341   */\n      0x00\n        /* \"#utility.yul\":5363:5368   */\n      dup2\n        /* \"#utility.yul\":5352:5368   */\n      swap1\n      pop\n        /* \"#utility.yul\":5297:5374   */\n      swap2\n      swap1\n      pop\n      jump\t// out\n        /* \"#utility.yul\":5380:5459   */\n    tag_117:\n        /* \"#utility.yul\":5419:5426   */\n      0x00\n        /* \"#utility.yul\":5448:5453   */\n      dup2\n        /* \"#utility.yul\":5437:5453   */\n      swap1\n      pop\n        /* \"#utility.yul\":5380:5459   */\n      swap2\n      swap1\n      pop\n      jump\t// out\n        /* \"#utility.yul\":5465:5641   */\n    tag_49:\n        /* \"#utility.yul\":5497:5498   */\n      0x00\n        /* \"#utility.yul\":5514:5534   */\n      tag_146\n        /* \"#utility.yul\":5532:5533   */\n      dup3\n        /* \"#utility.yul\":5514:5534   */\n      tag_112\n      jump\t// in\n    tag_146:\n        /* \"#utility.yul\":5509:5534   */\n      swap2\n      pop\n        /* \"#utility.yul\":5548:5568   */\n      tag_147\n        /* \"#utility.yul\":5566:5567   */\n      dup4\n        /* \"#utility.yul\":5548:5568   */\n      tag_112\n      jump\t// in\n    tag_147:\n        /* \"#utility.yul\":5543:5568   */\n      swap3\n      pop\n        /* \"#utility.yul\":5587:5588   */\n      dup3\n        /* \"#utility.yul\":5577:5612   */\n      tag_148\n      jumpi\n        /* \"#utility.yul\":5592:5610   */\n      tag_149\n      tag_150\n      jump\t// in\n    tag_149:\n        /* \"#utility.yul\":5577:5612   */\n    tag_148:\n        /* \"#utility.yul\":5633:5634   */\n      dup3\n        /* \"#utility.yul\":5630:5631   */\n      dup3\n        /* \"#utility.yul\":5626:5635   */\n      mod\n        /* \"#utility.yul\":5621:5635   */\n      swap1\n      pop\n        /* \"#utility.yul\":5465:5641   */\n      swap3\n      swap2\n      pop\n      pop\n      jump\t// out\n        /* \"#utility.yul\":5647:5827   */\n    tag_150:\n        /* \"#utility.yul\":5695:5772   */\n      0x4e487b7100000000000000000000000000000000000000000000000000000000\n        /* \"#utility.yul\":5692:5693   */\n      0x00\n        /* \"#utility.yul\":5685:5773   */\n      mstore\n        /* \"#utility.yul\":5792:5796   */\n      0x12\n        /* \"#utility.yul\":5789:5790   */\n      0x04\n        /* \"#utility.yul\":5782:5797   */\n      mstore\n        /* \"#utility.yul\":5816:5820   */\n      0x24\n        /* \"#utility.yul\":5813:5814   */\n      0x00\n        /* \"#utility.yul\":5806:5821   */\n      revert\n        /* \"#utility.yul\":5833:6013   */\n    tag_52:\n        /* \"#utility.yul\":5881:5958   */\n      0x4e487b7100000000000000000000000000000000000000000000000000000000\n        /* \"#utility.yul\":5878:5879   */\n      0x00\n        /* \"#utility.yul\":5871:5959   */\n      mstore\n        /* \"#utility.yul\":5978:5982   */\n      0x32\n        /* \"#utility.yul\":5975:5976   */\n      0x04\n        /* \"#utility.yul\":5968:5983   */\n      mstore\n        /* \"#utility.yul\":6002:6006   */\n      0x24\n        /* \"#utility.yul\":5999:6000   */\n      0x00\n        /* \"#utility.yul\":5992:6007   */\n      revert\n        /* \"#utility.yul\":6019:6199   */\n    tag_59:\n        /* \"#utility.yul\":6067:6144   */\n      0x4e487b7100000000000000000000000000000000000000000000000000000000\n        /* \"#utility.yul\":6064:6065   */\n      0x00\n        /* \"#utility.yul\":6057:6145   */\n      mstore\n        /* \"#utility.yul\":6164:6168   */\n      0x41\n        /* \"#utility.yul\":6161:6162   */\n      0x04\n        /* \"#utility.yul\":6154:6169   */\n      mstore\n        /* \"#utility.yul\":6188:6192   */\n      0x24\n        /* \"#utility.yul\":6185:6186   */\n      0x00\n        /* \"#utility.yul\":6178:6193   */\n      revert\n        /* \"#utility.yul\":6328:6445   */\n    tag_83:\n        /* \"#utility.yul\":6437:6438   */\n      0x00\n        /* \"#utility.yul\":6434:6435   */\n      dup1\n        /* \"#utility.yul\":6427:6439   */\n      revert\n        /* \"#utility.yul\":6451:6633   */\n    tag_98:\n        /* \"#utility.yul\":6591:6625   */\n      0x5061727469636970616e747320617265206c657373207468616e207468726565\n        /* \"#utility.yul\":6587:6588   */\n      0x00\n        /* \"#utility.yul\":6579:6585   */\n      dup3\n        /* \"#utility.yul\":6575:6589   */\n      add\n        /* \"#utility.yul\":6568:6626   */\n      mstore\n        /* \"#utility.yul\":6451:6633   */\n      pop\n      jump\t// out\n        /* \"#utility.yul\":6639:6821   */\n    tag_103:\n        /* \"#utility.yul\":6779:6813   */\n      0x4f6e6c79204d616e616765722063616e20736565207468652062616c616e6365\n        /* \"#utility.yul\":6775:6776   */\n      0x00\n        /* \"#utility.yul\":6767:6773   */\n      dup3\n        /* \"#utility.yul\":6763:6777   */\n      add\n        /* \"#utility.yul\":6756:6814   */\n      mstore\n        /* \"#utility.yul\":6639:6821   */\n      pop\n      jump\t// out\n        /* \"#utility.yul\":6827:7009   */\n    tag_108:\n        /* \"#utility.yul\":6967:7001   */\n      0x4f6e6c79204d616e616765722063616e20737461727420207468652067616d65\n        /* \"#utility.yul\":6963:6964   */\n      0x00\n        /* \"#utility.yul\":6955:6961   */\n      dup3\n        /* \"#utility.yul\":6951:6965   */\n      add\n        /* \"#utility.yul\":6944:7002   */\n      mstore\n        /* \"#utility.yul\":6827:7009   */\n      pop\n      jump\t// out\n        /* \"#utility.yul\":7015:7137   */\n    tag_79:\n        /* \"#utility.yul\":7088:7112   */\n      tag_161\n        /* \"#utility.yul\":7106:7111   */\n      dup2\n        /* \"#utility.yul\":7088:7112   */\n      tag_112\n      jump\t// in\n    tag_161:\n        /* \"#utility.yul\":7081:7086   */\n      dup2\n        /* \"#utility.yul\":7078:7113   */\n      eq\n        /* \"#utility.yul\":7068:7131   */\n      tag_162\n      jumpi\n        /* \"#utility.yul\":7127:7128   */\n      0x00\n        /* \"#utility.yul\":7124:7125   */\n      dup1\n        /* \"#utility.yul\":7117:7129   */\n      revert\n        /* \"#utility.yul\":7068:7131   */\n    tag_162:\n        /* \"#utility.yul\":7015:7137   */\n      pop\n      jump\t// out\n\n    auxdata: 0xa26469706673582212206f1df108390faedd1fc8f6c8d3b944c4aa85299a3b796ef9dcf86cf0f0a3bbee64736f6c63430008070033\n}\n",
				"bytecode": {
					"linkReferences": {},
					"object": "608060405234801561001057600080fd5b50336000806101000a81548173ffffffffffffffffffffffffffffffffffffffff021916908373ffffffffffffffffffffffffffffffffffffffff160217905550610940806100606000396000f3fe60806040526004361061004e5760003560e01c806312065fe0146100d157806333a99e04146100fc57806335c1d34914610113578063481c6a75146101505780635ec01e4d1461017b576100cc565b366100cc57670de0b6b3a7640000341461006757600080fd5b6001339080600181540180825580915050600190039060005260206000200160009091909190916101000a81548173ffffffffffffffffffffffffffffffffffffffff021916908373ffffffffffffffffffffffffffffffffffffffff160217905550005b600080fd5b3480156100dd57600080fd5b506100e66101a6565b6040516100f39190610731565b60405180910390f35b34801561010857600080fd5b5061011161023d565b005b34801561011f57600080fd5b5061013a60048036038101906101359190610584565b61042b565b60405161014791906106b6565b60405180910390f35b34801561015c57600080fd5b5061016561046a565b604051610172919061069b565b60405180910390f35b34801561018757600080fd5b5061019061048e565b60405161019d9190610731565b60405180910390f35b60008060009054906101000a900473ffffffffffffffffffffffffffffffffffffffff1673ffffffffffffffffffffffffffffffffffffffff163373ffffffffffffffffffffffffffffffffffffffff1614610237576040517f08c379a000000000000000000000000000000000000000000000000000000000815260040161022e906106f1565b60405180910390fd5b47905090565b60008054906101000a900473ffffffffffffffffffffffffffffffffffffffff1673ffffffffffffffffffffffffffffffffffffffff163373ffffffffffffffffffffffffffffffffffffffff16146102cb576040517f08c379a00000000000000000000000000000000000000000000000000000000081526004016102c290610711565b60405180910390fd5b60036001805490501015610314576040517f08c379a000000000000000000000000000000000000000000000000000000000815260040161030b906106d1565b60405180910390fd5b600061031e61048e565b905060006001805490508261033391906107b5565b905060006001828154811061034b5761034a610815565b5b9060005260206000200160009054906101000a900473ffffffffffffffffffffffffffffffffffffffff1690508073ffffffffffffffffffffffffffffffffffffffff166108fc61039a6101a6565b9081150290604051600060405180830381858888f193505050501580156103c5573d6000803e3d6000fd5b50600067ffffffffffffffff8111156103e1576103e0610844565b5b60405190808252806020026020018201604052801561040f5781602001602082028036833780820191505090505b50600190805190602001906104259291906104c8565b50505050565b6001818154811061043b57600080fd5b906000526020600020016000915054906101000a900473ffffffffffffffffffffffffffffffffffffffff1681565b60008054906101000a900473ffffffffffffffffffffffffffffffffffffffff1681565b600044426001805490506040516020016104aa9392919061065e565b6040516020818303038152906040528051906020012060001c905090565b828054828255906000526020600020908101928215610541579160200282015b828111156105405782518260006101000a81548173ffffffffffffffffffffffffffffffffffffffff021916908373ffffffffffffffffffffffffffffffffffffffff160217905550916020019190600101906104e8565b5b50905061054e9190610552565b5090565b5b8082111561056b576000816000905550600101610553565b5090565b60008135905061057e816108f3565b92915050565b60006020828403121561059a57610599610873565b5b60006105a88482850161056f565b91505092915050565b6105ba8161076f565b82525050565b6105c98161075d565b82525050565b60006105dc60208361074c565b91506105e782610878565b602082019050919050565b60006105ff60208361074c565b915061060a826108a1565b602082019050919050565b600061062260208361074c565b915061062d826108ca565b602082019050919050565b610641816107a1565b82525050565b610658610653826107a1565b6107ab565b82525050565b600061066a8286610647565b60208201915061067a8285610647565b60208201915061068a8284610647565b602082019150819050949350505050565b60006020820190506106b060008301846105c0565b92915050565b60006020820190506106cb60008301846105b1565b92915050565b600060208201905081810360008301526106ea816105cf565b9050919050565b6000602082019050818103600083015261070a816105f2565b9050919050565b6000602082019050818103600083015261072a81610615565b9050919050565b60006020820190506107466000830184610638565b92915050565b600082825260208201905092915050565b600061076882610781565b9050919050565b600061077a82610781565b9050919050565b600073ffffffffffffffffffffffffffffffffffffffff82169050919050565b6000819050919050565b6000819050919050565b60006107c0826107a1565b91506107cb836107a1565b9250826107db576107da6107e6565b5b828206905092915050565b7f4e487b7100000000000000000000000000000000000000000000000000000000600052601260045260246000fd5b7f4e487b7100000000000000000000000000000000000000000000000000000000600052603260045260246000fd5b7f4e487b7100000000000000000000000000000000000000000000000000000000600052604160045260246000fd5b600080fd5b7f5061727469636970616e747320617265206c657373207468616e207468726565600082015250565b7f4f6e6c79204d616e616765722063616e20736565207468652062616c616e6365600082015250565b7f4f6e6c79204d616e616765722063616e20737461727420207468652067616d65600082015250565b6108fc816107a1565b811461090757600080fd5b5056fea26469706673582212206f1df108390faedd1fc8f6c8d3b944c4aa85299a3b796ef9dcf86cf0f0a3bbee64736f6c63430008070033",
					"opcodes": "PUSH1 0x80 PUSH1 0x40 MSTORE CALLVALUE DUP1 ISZERO PUSH2 0x10 JUMPI PUSH1 0x0 DUP1 REVERT JUMPDEST POP CALLER PUSH1 0x0 DUP1 PUSH2 0x100 EXP DUP2 SLOAD DUP2 PUSH20 0xFFFFFFFFFFFFFFFFFFFFFFFFFFFFFFFFFFFFFFFF MUL NOT AND SWAP1 DUP4 PUSH20 0xFFFFFFFFFFFFFFFFFFFFFFFFFFFFFFFFFFFFFFFF AND MUL OR SWAP1 SSTORE POP PUSH2 0x940 DUP1 PUSH2 0x60 PUSH1 0x0 CODECOPY PUSH1 0x0 RETURN INVALID PUSH1 0x80 PUSH1 0x40 MSTORE PUSH1 0x4 CALLDATASIZE LT PUSH2 0x4E JUMPI PUSH1 0x0 CALLDATALOAD PUSH1 0xE0 SHR DUP1 PUSH4 0x12065FE0 EQ PUSH2 0xD1 JUMPI DUP1 PUSH4 0x33A99E04 EQ PUSH2 0xFC JUMPI DUP1 PUSH4 0x35C1D349 EQ PUSH2 0x113 JUMPI DUP1 PUSH4 0x481C6A75 EQ PUSH2 0x150 JUMPI DUP1 PUSH4 0x5EC01E4D EQ PUSH2 0x17B JUMPI PUSH2 0xCC JUMP JUMPDEST CALLDATASIZE PUSH2 0xCC JUMPI PUSH8 0xDE0B6B3A7640000 CALLVALUE EQ PUSH2 0x67 JUMPI PUSH1 0x0 DUP1 REVERT JUMPDEST PUSH1 0x1 CALLER SWAP1 DUP1 PUSH1 0x1 DUP2 SLOAD ADD DUP1 DUP3 SSTORE DUP1 SWAP2 POP POP PUSH1 0x1 SWAP1 SUB SWAP1 PUSH1 0x0 MSTORE PUSH1 0x20 PUSH1 0x0 KECCAK256 ADD PUSH1 0x0 SWAP1 SWAP2 SWAP1 SWAP2 SWAP1 SWAP2 PUSH2 0x100 EXP DUP2 SLOAD DUP2 PUSH20 0xFFFFFFFFFFFFFFFFFFFFFFFFFFFFFFFFFFFFFFFF MUL NOT AND SWAP1 DUP4 PUSH20 0xFFFFFFFFFFFFFFFFFFFFFFFFFFFFFFFFFFFFFFFF AND MUL OR SWAP1 SSTORE POP STOP JUMPDEST PUSH1 0x0 DUP1 REVERT JUMPDEST CALLVALUE DUP1 ISZERO PUSH2 0xDD JUMPI PUSH1 0x0 DUP1 REVERT JUMPDEST POP PUSH2 0xE6 PUSH2 0x1A6 JUMP JUMPDEST PUSH1 0x40 MLOAD PUSH2 0xF3 SWAP2 SWAP1 PUSH2 0x731 JUMP JUMPDEST PUSH1 0x40 MLOAD DUP1 SWAP2 SUB SWAP1 RETURN JUMPDEST CALLVALUE DUP1 ISZERO PUSH2 0x108 JUMPI PUSH1 0x0 DUP1 REVERT JUMPDEST POP PUSH2 0x111 PUSH2 0x23D JUMP JUMPDEST STOP JUMPDEST CALLVALUE DUP1 ISZERO PUSH2 0x11F JUMPI PUSH1 0x0 DUP1 REVERT JUMPDEST POP PUSH2 0x13A PUSH1 0x4 DUP1 CALLDATASIZE SUB DUP2 ADD SWAP1 PUSH2 0x135 SWAP2 SWAP1 PUSH2 0x584 JUMP JUMPDEST PUSH2 0x42B JUMP JUMPDEST PUSH1 0x40 MLOAD PUSH2 0x147 SWAP2 SWAP1 PUSH2 0x6B6 JUMP JUMPDEST PUSH1 0x40 MLOAD DUP1 SWAP2 SUB SWAP1 RETURN JUMPDEST CALLVALUE DUP1 ISZERO PUSH2 0x15C JUMPI PUSH1 0x0 DUP1 REVERT JUMPDEST POP PUSH2 0x165 PUSH2 0x46A JUMP JUMPDEST PUSH1 0x40 MLOAD PUSH2 0x172 SWAP2 SWAP1 PUSH2 0x69B JUMP JUMPDEST PUSH1 0x40 MLOAD DUP1 SWAP2 SUB SWAP1 RETURN JUMPDEST CALLVALUE DUP1 ISZERO PUSH2 0x187 JUMPI PUSH1 0x0 DUP1 REVERT JUMPDEST POP PUSH2 0x190 PUSH2 0x48E JUMP JUMPDEST PUSH1 0x40 MLOAD PUSH2 0x19D SWAP2 SWAP1 PUSH2 0x731 JUMP JUMPDEST PUSH1 0x40 MLOAD DUP1 SWAP2 SUB SWAP1 RETURN JUMPDEST PUSH1 0x0 DUP1 PUSH1 0x0 SWAP1 SLOAD SWAP1 PUSH2 0x100 EXP SWAP1 DIV PUSH20 0xFFFFFFFFFFFFFFFFFFFFFFFFFFFFFFFFFFFFFFFF AND PUSH20 0xFFFFFFFFFFFFFFFFFFFFFFFFFFFFFFFFFFFFFFFF AND CALLER PUSH20 0xFFFFFFFFFFFFFFFFFFFFFFFFFFFFFFFFFFFFFFFF AND EQ PUSH2 0x237 JUMPI PUSH1 0x40 MLOAD PUSH32 0x8C379A000000000000000000000000000000000000000000000000000000000 DUP2 MSTORE PUSH1 0x4 ADD PUSH2 0x22E SWAP1 PUSH2 0x6F1 JUMP JUMPDEST PUSH1 0x40 MLOAD DUP1 SWAP2 SUB SWAP1 REVERT JUMPDEST SELFBALANCE SWAP1 POP SWAP1 JUMP JUMPDEST PUSH1 0x0 DUP1 SLOAD SWAP1 PUSH2 0x100 EXP SWAP1 DIV PUSH20 0xFFFFFFFFFFFFFFFFFFFFFFFFFFFFFFFFFFFFFFFF AND PUSH20 0xFFFFFFFFFFFFFFFFFFFFFFFFFFFFFFFFFFFFFFFF AND CALLER PUSH20 0xFFFFFFFFFFFFFFFFFFFFFFFFFFFFFFFFFFFFFFFF AND EQ PUSH2 0x2CB JUMPI PUSH1 0x40 MLOAD PUSH32 0x8C379A000000000000000000000000000000000000000000000000000000000 DUP2 MSTORE PUSH1 0x4 ADD PUSH2 0x2C2 SWAP1 PUSH2 0x711 JUMP JUMPDEST PUSH1 0x40 MLOAD DUP1 SWAP2 SUB SWAP1 REVERT JUMPDEST PUSH1 0x3 PUSH1 0x1 DUP1 SLOAD SWAP1 POP LT ISZERO PUSH2 0x314 JUMPI PUSH1 0x40 MLOAD PUSH32 0x8C379A000000000000000000000000000000000000000000000000000000000 DUP2 MSTORE PUSH1 0x4 ADD PUSH2 0x30B SWAP1 PUSH2 0x6D1 JUMP JUMPDEST PUSH1 0x40 MLOAD DUP1 SWAP2 SUB SWAP1 REVERT JUMPDEST PUSH1 0x0 PUSH2 0x31E PUSH2 0x48E JUMP JUMPDEST SWAP1 POP PUSH1 0x0 PUSH1 0x1 DUP1 SLOAD SWAP1 POP DUP3 PUSH2 0x333 SWAP2 SWAP1 PUSH2 0x7B5 JUMP JUMPDEST SWAP1 POP PUSH1 0x0 PUSH1 0x1 DUP3 DUP2 SLOAD DUP2 LT PUSH2 0x34B JUMPI PUSH2 0x34A PUSH2 0x815 JUMP JUMPDEST JUMPDEST SWAP1 PUSH1 0x0 MSTORE PUSH1 0x20 PUSH1 0x0 KECCAK256 ADD PUSH1 0x0 SWAP1 SLOAD SWAP1 PUSH2 0x100 EXP SWAP1 DIV PUSH20 0xFFFFFFFFFFFFFFFFFFFFFFFFFFFFFFFFFFFFFFFF AND SWAP1 POP DUP1 PUSH20 0xFFFFFFFFFFFFFFFFFFFFFFFFFFFFFFFFFFFFFFFF AND PUSH2 0x8FC PUSH2 0x39A PUSH2 0x1A6 JUMP JUMPDEST SWAP1 DUP2 ISZERO MUL SWAP1 PUSH1 0x40 MLOAD PUSH1 0x0 PUSH1 0x40 MLOAD DUP1 DUP4 SUB DUP2 DUP6 DUP9 DUP9 CALL SWAP4 POP POP POP POP ISZERO DUP1 ISZERO PUSH2 0x3C5 JUMPI RETURNDATASIZE PUSH1 0x0 DUP1 RETURNDATACOPY RETURNDATASIZE PUSH1 0x0 REVERT JUMPDEST POP PUSH1 0x0 PUSH8 0xFFFFFFFFFFFFFFFF DUP2 GT ISZERO PUSH2 0x3E1 JUMPI PUSH2 0x3E0 PUSH2 0x844 JUMP JUMPDEST JUMPDEST PUSH1 0x40 MLOAD SWAP1 DUP1 DUP3 MSTORE DUP1 PUSH1 0x20 MUL PUSH1 0x20 ADD DUP3 ADD PUSH1 0x40 MSTORE DUP1 ISZERO PUSH2 0x40F JUMPI DUP2 PUSH1 0x20 ADD PUSH1 0x20 DUP3 MUL DUP1 CALLDATASIZE DUP4 CALLDATACOPY DUP1 DUP3 ADD SWAP2 POP POP SWAP1 POP JUMPDEST POP PUSH1 0x1 SWAP1 DUP1 MLOAD SWAP1 PUSH1 0x20 ADD SWAP1 PUSH2 0x425 SWAP3 SWAP2 SWAP1 PUSH2 0x4C8 JUMP JUMPDEST POP POP POP POP JUMP JUMPDEST PUSH1 0x1 DUP2 DUP2 SLOAD DUP2 LT PUSH2 0x43B JUMPI PUSH1 0x0 DUP1 REVERT JUMPDEST SWAP1 PUSH1 0x0 MSTORE PUSH1 0x20 PUSH1 0x0 KECCAK256 ADD PUSH1 0x0 SWAP2 POP SLOAD SWAP1 PUSH2 0x100 EXP SWAP1 DIV PUSH20 0xFFFFFFFFFFFFFFFFFFFFFFFFFFFFFFFFFFFFFFFF AND DUP2 JUMP JUMPDEST PUSH1 0x0 DUP1 SLOAD SWAP1 PUSH2 0x100 EXP SWAP1 DIV PUSH20 0xFFFFFFFFFFFFFFFFFFFFFFFFFFFFFFFFFFFFFFFF AND DUP2 JUMP JUMPDEST PUSH1 0x0 DIFFICULTY TIMESTAMP PUSH1 0x1 DUP1 SLOAD SWAP1 POP PUSH1 0x40 MLOAD PUSH1 0x20 ADD PUSH2 0x4AA SWAP4 SWAP3 SWAP2 SWAP1 PUSH2 0x65E JUMP JUMPDEST PUSH1 0x40 MLOAD PUSH1 0x20 DUP2 DUP4 SUB SUB DUP2 MSTORE SWAP1 PUSH1 0x40 MSTORE DUP1 MLOAD SWAP1 PUSH1 0x20 ADD KECCAK256 PUSH1 0x0 SHR SWAP1 POP SWAP1 JUMP JUMPDEST DUP3 DUP1 SLOAD DUP3 DUP3 SSTORE SWAP1 PUSH1 0x0 MSTORE PUSH1 0x20 PUSH1 0x0 KECCAK256 SWAP1 DUP2 ADD SWAP3 DUP3 ISZERO PUSH2 0x541 JUMPI SWAP2 PUSH1 0x20 MUL DUP3 ADD JUMPDEST DUP3 DUP2 GT ISZERO PUSH2 0x540 JUMPI DUP3 MLOAD DUP3 PUSH1 0x0 PUSH2 0x100 EXP DUP2 SLOAD DUP2 PUSH20 0xFFFFFFFFFFFFFFFFFFFFFFFFFFFFFFFFFFFFFFFF MUL NOT AND SWAP1 DUP4 PUSH20 0xFFFFFFFFFFFFFFFFFFFFFFFFFFFFFFFFFFFFFFFF AND MUL OR SWAP1 SSTORE POP SWAP2 PUSH1 0x20 ADD SWAP2 SWAP1 PUSH1 0x1 ADD SWAP1 PUSH2 0x4E8 JUMP JUMPDEST JUMPDEST POP SWAP1 POP PUSH2 0x54E SWAP2 SWAP1 PUSH2 0x552 JUMP JUMPDEST POP SWAP1 JUMP JUMPDEST JUMPDEST DUP1 DUP3 GT ISZERO PUSH2 0x56B JUMPI PUSH1 0x0 DUP2 PUSH1 0x0 SWAP1 SSTORE POP PUSH1 0x1 ADD PUSH2 0x553 JUMP JUMPDEST POP SWAP1 JUMP JUMPDEST PUSH1 0x0 DUP2 CALLDATALOAD SWAP1 POP PUSH2 0x57E DUP2 PUSH2 0x8F3 JUMP JUMPDEST SWAP3 SWAP2 POP POP JUMP JUMPDEST PUSH1 0x0 PUSH1 0x20 DUP3 DUP5 SUB SLT ISZERO PUSH2 0x59A JUMPI PUSH2 0x599 PUSH2 0x873 JUMP JUMPDEST JUMPDEST PUSH1 0x0 PUSH2 0x5A8 DUP5 DUP3 DUP6 ADD PUSH2 0x56F JUMP JUMPDEST SWAP2 POP POP SWAP3 SWAP2 POP POP JUMP JUMPDEST PUSH2 0x5BA DUP2 PUSH2 0x76F JUMP JUMPDEST DUP3 MSTORE POP POP JUMP JUMPDEST PUSH2 0x5C9 DUP2 PUSH2 0x75D JUMP JUMPDEST DUP3 MSTORE POP POP JUMP JUMPDEST PUSH1 0x0 PUSH2 0x5DC PUSH1 0x20 DUP4 PUSH2 0x74C JUMP JUMPDEST SWAP2 POP PUSH2 0x5E7 DUP3 PUSH2 0x878 JUMP JUMPDEST PUSH1 0x20 DUP3 ADD SWAP1 POP SWAP2 SWAP1 POP JUMP JUMPDEST PUSH1 0x0 PUSH2 0x5FF PUSH1 0x20 DUP4 PUSH2 0x74C JUMP JUMPDEST SWAP2 POP PUSH2 0x60A DUP3 PUSH2 0x8A1 JUMP JUMPDEST PUSH1 0x20 DUP3 ADD SWAP1 POP SWAP2 SWAP1 POP JUMP JUMPDEST PUSH1 0x0 PUSH2 0x622 PUSH1 0x20 DUP4 PUSH2 0x74C JUMP JUMPDEST SWAP2 POP PUSH2 0x62D DUP3 PUSH2 0x8CA JUMP JUMPDEST PUSH1 0x20 DUP3 ADD SWAP1 POP SWAP2 SWAP1 POP JUMP JUMPDEST PUSH2 0x641 DUP2 PUSH2 0x7A1 JUMP JUMPDEST DUP3 MSTORE POP POP JUMP JUMPDEST PUSH2 0x658 PUSH2 0x653 DUP3 PUSH2 0x7A1 JUMP JUMPDEST PUSH2 0x7AB JUMP JUMPDEST DUP3 MSTORE POP POP JUMP JUMPDEST PUSH1 0x0 PUSH2 0x66A DUP3 DUP7 PUSH2 0x647 JUMP JUMPDEST PUSH1 0x20 DUP3 ADD SWAP2 POP PUSH2 0x67A DUP3 DUP6 PUSH2 0x647 JUMP JUMPDEST PUSH1 0x20 DUP3 ADD SWAP2 POP PUSH2 0x68A DUP3 DUP5 PUSH2 0x647 JUMP JUMPDEST PUSH1 0x20 DUP3 ADD SWAP2 POP DUP2 SWAP1 POP SWAP5 SWAP4 POP POP POP POP JUMP JUMPDEST PUSH1 0x0 PUSH1 0x20 DUP3 ADD SWAP1 POP PUSH2 0x6B0 PUSH1 0x0 DUP4 ADD DUP5 PUSH2 0x5C0 JUMP JUMPDEST SWAP3 SWAP2 POP POP JUMP JUMPDEST PUSH1 0x0 PUSH1 0x20 DUP3 ADD SWAP1 POP PUSH2 0x6CB PUSH1 0x0 DUP4 ADD DUP5 PUSH2 0x5B1 JUMP JUMPDEST SWAP3 SWAP2 POP POP JUMP JUMPDEST PUSH1 0x0 PUSH1 0x20 DUP3 ADD SWAP1 POP DUP2 DUP2 SUB PUSH1 0x0 DUP4 ADD MSTORE PUSH2 0x6EA DUP2 PUSH2 0x5CF JUMP JUMPDEST SWAP1 POP SWAP2 SWAP1 POP JUMP JUMPDEST PUSH1 0x0 PUSH1 0x20 DUP3 ADD SWAP1 POP DUP2 DUP2 SUB PUSH1 0x0 DUP4 ADD MSTORE PUSH2 0x70A DUP2 PUSH2 0x5F2 JUMP JUMPDEST SWAP1 POP SWAP2 SWAP1 POP JUMP JUMPDEST PUSH1 0x0 PUSH1 0x20 DUP3 ADD SWAP1 POP DUP2 DUP2 SUB PUSH1 0x0 DUP4 ADD MSTORE PUSH2 0x72A DUP2 PUSH2 0x615 JUMP JUMPDEST SWAP1 POP SWAP2 SWAP1 POP JUMP JUMPDEST PUSH1 0x0 PUSH1 0x20 DUP3 ADD SWAP1 POP PUSH2 0x746 PUSH1 0x0 DUP4 ADD DUP5 PUSH2 0x638 JUMP JUMPDEST SWAP3 SWAP2 POP POP JUMP JUMPDEST PUSH1 0x0 DUP3 DUP3 MSTORE PUSH1 0x20 DUP3 ADD SWAP1 POP SWAP3 SWAP2 POP POP JUMP JUMPDEST PUSH1 0x0 PUSH2 0x768 DUP3 PUSH2 0x781 JUMP JUMPDEST SWAP1 POP SWAP2 SWAP1 POP JUMP JUMPDEST PUSH1 0x0 PUSH2 0x77A DUP3 PUSH2 0x781 JUMP JUMPDEST SWAP1 POP SWAP2 SWAP1 POP JUMP JUMPDEST PUSH1 0x0 PUSH20 0xFFFFFFFFFFFFFFFFFFFFFFFFFFFFFFFFFFFFFFFF DUP3 AND SWAP1 POP SWAP2 SWAP1 POP JUMP JUMPDEST PUSH1 0x0 DUP2 SWAP1 POP SWAP2 SWAP1 POP JUMP JUMPDEST PUSH1 0x0 DUP2 SWAP1 POP SWAP2 SWAP1 POP JUMP JUMPDEST PUSH1 0x0 PUSH2 0x7C0 DUP3 PUSH2 0x7A1 JUMP JUMPDEST SWAP2 POP PUSH2 0x7CB DUP4 PUSH2 0x7A1 JUMP JUMPDEST SWAP3 POP DUP3 PUSH2 0x7DB JUMPI PUSH2 0x7DA PUSH2 0x7E6 JUMP JUMPDEST JUMPDEST DUP3 DUP3 MOD SWAP1 POP SWAP3 SWAP2 POP POP JUMP JUMPDEST PUSH32 0x4E487B7100000000000000000000000000000000000000000000000000000000 PUSH1 0x0 MSTORE PUSH1 0x12 PUSH1 0x4 MSTORE PUSH1 0x24 PUSH1 0x0 REVERT JUMPDEST PUSH32 0x4E487B7100000000000000000000000000000000000000000000000000000000 PUSH1 0x0 MSTORE PUSH1 0x32 PUSH1 0x4 MSTORE PUSH1 0x24 PUSH1 0x0 REVERT JUMPDEST PUSH32 0x4E487B7100000000000000000000000000000000000000000000000000000000 PUSH1 0x0 MSTORE PUSH1 0x41 PUSH1 0x4 MSTORE PUSH1 0x24 PUSH1 0x0 REVERT JUMPDEST PUSH1 0x0 DUP1 REVERT JUMPDEST PUSH32 0x5061727469636970616E747320617265206C657373207468616E207468726565 PUSH1 0x0 DUP3 ADD MSTORE POP JUMP JUMPDEST PUSH32 0x4F6E6C79204D616E616765722063616E20736565207468652062616C616E6365 PUSH1 0x0 DUP3 ADD MSTORE POP JUMP JUMPDEST PUSH32 0x4F6E6C79204D616E616765722063616E20737461727420207468652067616D65 PUSH1 0x0 DUP3 ADD MSTORE POP JUMP JUMPDEST PUSH2 0x8FC DUP2 PUSH2 0x7A1 JUMP JUMPDEST DUP2 EQ PUSH2 0x907 JUMPI PUSH1 0x0 DUP1 REVERT JUMPDEST POP JUMP INVALID LOG2 PUSH5 0x6970667358 0x22 SLT KECCAK256 PUSH16 0x1DF108390FAEDD1FC8F6C8D3B944C4AA DUP6 0x29 SWAP11 EXTCODESIZE PUSH26 0x6EF9DCF86CF0F0A3BBEE64736F6C634300080700330000000000 "
				},
				"gasEstimates": {
					"creation": {
						"codeDepositCost": "473600",
						"executionCost": "24771",
						"totalCost": "498371"
					},
					"external": {
						"getBalance()": "2584",
						"manager()": "2555",
						"participants(uint256)": "4978",
						"random()": "infinite",
						"selectWinner()": "infinite"
					}
				},
				"methodIdentifiers": {
					"getBalance()": "12065fe0",
					"manager()": "481c6a75",
					"participants(uint256)": "35c1d349",
					"random()": "5ec01e4d",
					"selectWinner()": "33a99e04"
				}
			},
			"storageLayout": {
				"storage": [
					{
						"astId": 5,
						"contract": "Lottery.sol:Lottery",
						"label": "manager",
						"offset": 0,
						"slot": "0",
						"type": "t_address"
					},
					{
						"astId": 8,
						"contract": "Lottery.sol:Lottery",
						"label": "participants",
						"offset": 0,
						"slot": "1",
						"type": "t_array(t_address_payable)dyn_storage"
					}
				],
				"types": {
					"t_address": {
						"encoding": "inplace",
						"label": "address",
						"numberOfBytes": "20"
					},
					"t_address_payable": {
						"encoding": "inplace",
						"label": "address payable",
						"numberOfBytes": "20"
					},
					"t_array(t_address_payable)dyn_storage": {
						"base": "t_address_payable",
						"encoding": "dynamic_array",
						"label": "address payable[]",
						"numberOfBytes": "32"
					}
				}
			},
			"userdoc": {
				"kind": "user",
				"methods": {
					"getBalance()": {
						"notice": "To see the total amount and only the manager can use this function"
					},
					"manager()": {
						"notice": "Who manages the game here or starts the game is manager"
					},
					"random()": {
						"notice": "To generate a random value for selecting the winner"
					},
					"selectWinner()": {
						"notice": "This function calls all the functions and also selects the winner on the basis of random()Only the manager can call this function"
					}
				},
				"version": 1
			}
		}
	}
}